:020000040000fa
:080000000002040000000000f2
:020000040000fa
:10040000af2627000eff2c000e0188000000000020
:100410000c00070080a22200210020000f0007002e
:10042000000020000000e000020032000000020096
:100430000000000068430200020000000040da00f3
:100440000000fe00a0d820000000e0000200320002
:10045000102020009001880000000600a102880002
:10046000800078000000eb001a003700e2804000b6
:1004700054a0b4009101ba00e280400054a0b4003e
:100480009102ba00e280400054a0b4000002eb00e8
:10049000472bde00f507b200a6018800602ce100c2
:1004a00008003a000049eb000201e80002003900b0
:1004b0003420ec0002f0a0008301e900f9ff3e00c7
:1004c000040037006128e100010032000082eb00e7
:1004d000040007001101ba000200e000e3ff3a0047
:1004e0000000060004d0a300e20f49001c00390000
:1004f000810278003549ba000201e80002003900a3
:100500003420ec0002f0a0008301e9000f0032006b
:100510002549ba000201e800020039003420ec004d
:1005200002f0a0008301e900080032000400e000ae
:100530000600320015c9ba000201e80002003900c5
:100540003420ec0002f0a0008301e9008180e80083
:1005500054a0b4000300e000e2ff3a0000000600ef
:100560009102ba00055978008301e900f7ff3200d3
:10057000c82ade00055978008301e900f3ff320044
:100580000400e000f1ff320011d9ba00eeff37009d
:100590000040da000000fe000003b1000b0035004f
:1005a0009000b100080034008000b1000700350061
:1005b0005000b10004003400b001b1000300350068
:1005c0005000b10001003c001000050000000500d3
:1005d0006900e100040035006d00e1000300340013
:1005e0000002b1000100320000000500100005000b
:1005f0000a00fa0080017800e20f500027003e0058
:1006000000748300e10f50000800320080232000b6
:100610000000e00005003200042320002523200014
:1006200046232000800178000400370004222000c7
:100630002522200046222000832220001440900022
:100640000004e000040035008009eb001440900035
:100650000074a00010429800154090000028a300ec
:1006600003003a00154090000024a000904298003a
:100670008001eb0006003700154090000008a30041
:10068000fdff32003100fb00000b78008301e80021
:10069000828f5100f8ff3a00080037003000200038
:1006a000b0bf9f00c3bf9f00d1bf9f00e2bf9f00ac
:1006b0006a80570000c0da006fb997000200780026
:1006c0000080fa0000000600020ab900001bb90011
:1006d0000200b800810042008100430000000600d3
:1006e00014002000e0033700f4ff2f00de03370082
:1006f00003f0a200889fbe008a9fbe008c1f780076
:10070000f4030700fb0333006450e1004f003200a4
:100710006420e1005200320003826c0007003b00bd
:100720000905d0000306d000820f54000c065d00be
:1007300002003900020032008901780003067800c7
:100740008582550004003d000003fd008103fd008b
:100750008502ea008b854200840f720002003b0094
:1007600060001000e08018006011b8000005eb0088
:100770007a28e1000a00390006007800c75ddd0034
:10078000f707b200878075002d0037008281710065
:100790000a017800610560008180d1000080d300eb
:1007a0008502e900f9ff3b00060440008784480009
:1007b00002003b0060041400e0841c000988a300d0
:1007c000070032008a81710082817100610164003a
:1007d0008904d1000884d3008b05e8001700370096
:1007e0000978a30013003a000b00e0001300340066
:1007f0008b05e9000804440089844c000a44740015
:100800000978a3000d003a000b00e0000700340057
:100810008b05e9000804440089844c0001003a007b
:100820000b0020000978a300f7ff32000001eb0065
:1008300002003700828171000a017800bd030700c1
:100840000cf0a70001f0a000b30337006420e10022
:1008500002003a00838f6c00b30333000801be002e
:100860000200be00ac0337000001be00d703070042
:100870000470a70003f0a10003f8a30013003a00de
:100880006509b10010003200090035006928e10057
:1008900002003500010028000000050000004000b3
:1008a000818048008502e900fcff3a000000060054
:1008b000f88f4200050035008100d1000080d30090
:1008c0008502e800fcff3a00000006008000eb0013
:1008d000000005000001be00bc0307000470a70073
:1008e00003f0a1006509b100160032000d003500cb
:1008f0006828e10006003500f0ff2f00f1ff270017
:100900000300e00013003b00010028000000050088
:1009100000004000818048008502e900fcff3a00a9
:1009200008003700f88f420002003c008000eb0016
:10093000000005008100d1000080d3008502e8009e
:10094000fcff3a000300e00002003b0060001000e2
:10095000e080180000000600889fbe008a9fbe004d
:100960008c1f78005b0307006203330003866c0072
:100970006450e1002e0032006420e10033003200b8
:100980006150e1002f0032006120e10031003200af
:1009900085855500eb07b000090020000804200001
:1009a000050037000804440089844c000a00310027
:1009b0000603430087834b000001530081815b00e5
:1009c000f8ff33000203be000800a0000804440042
:1009d00089844c00f6ff3900c639dd0083017300bd
:1009e00001003200130020008904d1000884d300e4
:1009f0000998a300050032000800a7000300a0002a
:100a00008904d1000884d3008b05e8008904d10053
:100a10000884d3000001eb000281d20045030700e7
:100a200001f0a1000cf0a70001f0a0003a0337008c
:100a30006420e1003c0332000801be000200be0059
:100a4000f7ff37006120e100370332006000b80093
:100a5000f3ff37000000200001f82700f0ff370007
:100a6000889fbe008a9fbe008c1f78001903070074
:100a70002003330003866c006450e1002400320040
:100a80006420e100270032006150e10022003200c2
:100a90006120e100210032008b854200eb07b100ac
:100aa0000134b800003ab8000804420089844a00c2
:100ab000013ab8000030b8008880400009014a00bf
:100ac000040033000000400081804800020149001a
:100ad0008b05e900c909dd008301700001003200c7
:100ae00013002000c814de004814dd004709de00b2
:100af0001200b200c808de00088470000d03070071
:100b000001f0a1000cf0a70001f0a00002033700e3
:100b10006120e100040332000801be000200be00b3
:100b2000f7ff37006150e100fcff3a00fe0237009a
:100b3000889fbe008a9fbe00010578000100e0008a
:100b40000400350008003c000000e00020003200f6
:100b50000500370060001000e080180002003b0034
:100b600001f02c001a0037000004be006011b8002c
:100b70006b0920000982cf00020039000882cf00f3
:100b80000441b000694252000e00320008003b00f0
:100b900082817100610164008904d1000884d3005e
:100ba0008b05e8000442e800f9ff3a000500370031
:100bb0000804440089844c008b05e9000442e900e4
:100bc000fbff3a00db0207000af0a70001f0a000db
:100bd0004f05be004f04be0000000600889fbe0007
:100be0008a9fbe008c1f78000205be000004be0074
:100bf0000006eb00e00f5000e08f5800e00f5900b6
:100c0000e08f590007003d006000b8006011b80097
:100c100008045000898458000a0559008b85590042
:100c20001c002000e00f5200e08f5a00e00f5b0034
:100c3000e08f5b0002003d000f0007000c00a200e7
:100c40000800be000a01be00f50207000203be0054
:100c50000002be000c00e0000100320006000700a8
:100c60000400be000601be004f0678004f05be001e
:100c70004f04be00000006006000b8006011b8001c
:100c800004025000858258000603590087835900ea
:100c900000000600881f7800000478005001be00a4
:100ca0004000be0004004000858048000601490065
:100cb00087814900009cbe000294be000400e10050
:100cc0000588e1000690e1000798e100020031008c
:100cd000680044001008e8004f0478000000060097
:100ce000f4874700889fbe008a9fbe008c9fbe008d
:100cf0008e1f78000205be000004be00d4b79f001e
:100d0000e5b79f00f6b79f0087bf9f000000eb008c
:100d1000c0b79f00b0b79f00a0b79f0090b79f00db
:100d200080b79f000d042000bfb097004fb0970020
:100d3000000140000000e0000f003d004f08de0011
:100d400000007100c0b79f009e00070001003d0039
:100d500012002000a100070001003d001200200049
:100d6000a6000700b1000700b60007000f00400012
:100d7000c8ff0700220037004f08de0000067100a0
:100d8000ccb79f008f00070001003d00120020003b
:100d90009200070001003d001200200097000700ac
:100da000a20007000fb297009fb297002fb39700e1
:100db000bfb39700a90007000000520081805a00cd
:100dc00002015b0083815b0080b79f0091b79f00a9
:100dd000a2b79f00b3b79f000007eb009f0007007a
:100de0000020e10001a8e10002b0e10003b8e10049
:100df000010031001e0020000e005600c0b79f0009
:100e00004fb297000400e0000700350010002000fa
:100e1000010020006011b80008047000898470008f
:100e20000a0571008b8571008d06e900beff3a004e
:100e30000400e00003003d00820007000f004000b6
:100e400094ff07004fa897000000e00004003a005c
:100e50000fb497009fb497002fb59700bfb59700c8
:100e6000940007004f0778004f06be004f05be00f4
:100e70004f04be004f01b10000000600881f78003b
:100e800018002000881f780095ff07008f87e90071
:100e90004f04780000000600801feb0090ff070061
:100ea0008f87e90000000600889fbe008a9fbe0071
:100eb0008c1f78006e00070007003d0073000700dc
:100ec000e00f5b00e08f5b0007003d003200070091
:100ed0000006eb00040037003400070002003d006c
:100ee0002a0007001c00200072000700e3ff070033
:100ef0000203be000002be000c00e0000100320050
:100f0000220007000400be000601be004f06780064
:100f10004f05be004f04be0000000600889fbe00c3
:100f20008a9fbe008c1f78005100070005003d001d
:100f300056000700e00f5b00e08f5b0006003d00fd
:100f4000040037001900070003003d006000b800ee
:100f50006011b8001000070056000700ceff070020
:100f60000203be000002be000c00e00001003200df
:100f7000060007000400be000601be004f06780010
:100f80004f05be004f04be00000006006000b80020
:100f90006011b8000000370004025000858258003c
:100fa0000603590087835900000006000006eb0085
:100fb000e00f5200e08f5a00e00f5b00e08f5b0013
:100fc000000006000180400090b79f000001eb0088
:100fd0008fb097000100e0000000060002007000e2
:100fe00090b79f000180400080b79f000001eb0098
:100ff000ffa897000100e00000000600020070005a
:1010000080b79f00018040006faa9700cf20de00cc
:1010100001007000f0af9f000402420025000700ad
:101020004f18de000002720000000600e4af9f00cf
:101030000804440089844c000a054d008b854d004e
:10104000000006003fb29700cfb297005fb3970051
:10105000efb3970000fe2f00000006003fb097009e
:10106000cfb097005fb19700efb197000000060086
:101070000205be000004be00e00f5000e08f5800e3
:10108000e00f5900e08f5900000006006000b80032
:101090006011b80008045000898458000a055900fe
:1010a0008b8559001c002000e00f5200e08f5a0091
:1010b000000006000800be000a01be000000060095
:1010c0006022b800060220000000d0008180d2001b
:1010d0000482d2008582d2000000a00002025200e9
:1010e00083825a00030031000202420083824a00d8
:1010f0000000a1000603e900f3ff3a00000006002b
:10110000889fbe00830478000300e0002c003500b7
:1011100003003c00008270000402710026003200cf
:1011200036432000c50020008383cf000a00390029
:101130000541b1008283cf00070039000541b100ad
:101140008183cf00040039000541b1008083cf00c6
:10115000010039000541b10085c353006022b80089
:10116000120032000a003b008482720061026000bb
:101170008301d1000281d3008180d3000080d3009d
:101180000603e8008743e800f7ff3a00070037004e
:10119000000040008180480002014900838149002d
:1011a0000603e9008743e900f9ff3a00be010700a2
:1011b00009f0a70003f0a0004f04be0000000600e5
:1011c00060001000e080180060011900e081190043
:1011d000d3ff3b00033e2c00f7ff37002800fa0046
:1011e000889fbe008a9fbe008c9fbe0007067800c5
:1011f000878669000c003b000304780087047800b0
:1012000008f0a10009f0a100840f5000858f58005c
:10121000860f5900890f5c00030033000cf0a20018
:1012200001003a000cf0a100cb0107006400e100ce
:101230005f003200780147006408e100610032007d
:101240006c014700748557003200be001201be00d9
:101250003a04be001a05be001e039000be0a9000ac
:101260008503530006003d000004fd008104fd00dd
:101270000205fd008305fd008703ea0005037800f1
:101280000df8a3000400320060041400e0841c0088
:1012900060051d00e0851d006022b8007d03200070
:1012a0000d38e1008006eb000b0039004433dd000f
:1012b000f300b200830173003900370084827200aa
:1012c0000d027800e10664008b85d1000a85d30009
:1012d0008984d3000884d3008703e900f7ff3b002b
:1012e00008004000898048000a0149008b814900bc
:1012f00004003b0060001000e0801800600119004d
:10130000e08119000358a300090032008d827200a9
:1013100084827200610260008301d1000281d300e7
:101320008180d3000080d3000603e8001b00370053
:101330000348a30017003a000600e000170034003d
:101340000603e9000d00a30000004800818048006a
:1013500002014900838149000348a3000f003a00bd
:101360000600e000090034000603e9000000400028
:1013700081804800020149008381490001003a0050
:101380000003eb000348a300f5ff32006022b80021
:101390000200370084827200618266004201070009
:1013a00003f0a1000cf0a70003f0a0007e013700bd
:1013b000640147006408e10002003a000df8a30050
:1013c00076013a003200be001201be0076013700fd
:1013d0002800fa00889fbe008a9fbe008c9fbe0036
:1013e00003866b005c0107000028a30064003a003c
:1013f0000128a30067003a000008a30062003a0039
:101400000108a30065003a001e009000be0890008d
:1014100081064000ed3fb100f4805700ee019000de
:10142000111ab8008e099000311bb8009e09900077
:10143000311cb800511db800f48557004600070064
:10144000fe0190003a0007008b85e8003e0007008f
:101450008e09900040000700ee0190003400070064
:101460008b85e800380007008e09900040000700d7
:101470009e0990001b18b800890440000a854800a6
:10148000fe019000340007008b85e800380007005b
:10149000ee019000300007008e0990001b18b80084
:1014a000890440000a8548000a98a30008003a0011
:1014b0000402420085824a0006034b0087834b00ea
:1014c00008044c0089844c000a054d008d06e90093
:1014d00084827200850273004c3add00850272003e
:1014e0000100320015002000443ade001400b20072
:1014f0004538de00cb45dd000b007000c540de0046
:10150000cb4ddd008b8070004549de00cb55dd0002
:101510000b017100c551de000d037800e2000700e9
:1015200003f0a1000cf0a70003f0a0001e0137009b
:101530001b18b8008502400006834800e0834b007a
:1015400060044c00070037001b18b8000603400079
:1015500087834800faff37001b18b8008703400054
:1015600008844800e0844c0060054d00000006003f
:101570001b18b8000804400089844800faff3700af
:101580000108a30005013a005800be005801be0042
:10159000e3ff37000008a30000013a0009047800c7
:1015a000f9ff37001400fa00889fbe008a9fbe0032
:1015b0008c9fbe000004be000205be00680047000c
:1015c0000a90be000890be00fc0007000070a70053
:1015d0000bf0a1000bf8a30020003a009e09900038
:1015e0000e099000fe0090006e0090009e02900098
:1015f0003443200084825200eb0032000a003c0099
:10160000b4fc2f000428e100140034008301d10051
:101610000281d3008180d3000080d3008502e800de
:10162000faff3a00e0003700b40020000428e1008f
:1016300007003c0000004000818048000201490092
:10164000838149008502e900faff3a00d60037009d
:101650000300280002002000010037006011b800dc
:101660006000b800d0003700889fbe008a9fbe008f
:10167000841f7800170007004f0078001100330026
:10168000f0ff2f00838f6c0006003b00040565000f
:101690000a00a7000800370009f0a600100020008b
:1016a00008003700820f5400838f5c00030039006c
:1016b0001000200001003e000000200009f0a700fb
:1016c0000000ea004f05be004f04be000000e0002d
:1016d000000006000004be003c0007000003be003e
:1016e0000405be000200be0038000700844f7500ec
:1016f000000006000200be006450e1000500360054
:101700006420e100020036000968a30001003a00ed
:101710000800be000160a0004f0678004f05be0023
:101720004f04be0000000600f0ff2f00f1ff27006d
:10173000f9ff370081002000618055000b003d005b
:101740000b00200061fe2f000100e1001d003400ad
:1017500082817100610164008904d1000884d30092
:101760000000e800faff3a00710020006100640008
:1017700003007000020060000900320061044400b0
:10178000e0844c000988a500050032008b05e800c4
:101790006808e10002003a008904d1000884d300ff
:1017a000f20f20000258e10005003d00c75ddd009a
:1017b000f907b20089807500080078000000060073
:1017c0000bf827008b00780000000500c70ade0038
:1017d000f107b200f50fb20008003200e1cf42007d
:1017e000020032000170a00024000500810f70008b
:1017f000010032000408050044000500810f70005c
:1018000002003a00140005008502e90000004000d3
:1018100081c04800fcff3b000170a00024000500cf
:10182000889fbe008a9fbe008c9fbe000404b80043
:101830000506b8008904460060854e000606b8001b
:101840000a054600e0854e000706b8008b054600f5
:10185000040eb800890446000a854e00e0854d005c
:10186000050eb8000a0546008b854e00060eb8002e
:101870008b0546000416b8000a0546008b854e000d
:101880000516b8008b054600041eb8008b054600ff
:101890000800be000a01be004f06be004f05be0094
:1018a0004f04be0000000600180020005700200072
:1018b000080453000d003d000600200097fc2f0097
:1018c0000740e1001e003400848272006102600063
:1018d0008301d1000281d3008180d3000080d30036
:1018e0000804e800f8ff3a004700200061046000a7
:1018f00005047400040464000d003200610040001f
:10190000e080480060014900e081490003b8a5007b
:10191000070032000603e8006538e10004003a00e1
:101920008301d1000281d3008180d3000080d300e5
:10193000f87f20000830e10003003500080378003c
:101940006000b8006011b8004433dd00f300b2005d
:101950008301730000000600680447000294be0083
:101960000094be00fc0447008694be008494be0030
:101970000900780011000700080078000f00070038
:1019800099007800814f70000b003b000800be00fa
:10199000310007004f00b10003003700f3ff2700bc
:1019a000f2ff2f006110b9004f06be004f05be00c8
:1019b0004f04be000080fa0000000600800078009e
:1019c0005002be005003be004439de00f700b200f2
:1019d000f37f200003016100090032000218e100da
:1019e00016003a0085017200830173008381730041
:1019f0000008200015003a004000200013003700c6
:101a000085017200830173008381730005003a0031
:101a100004a8be0006a8be00100020000b0037007e
:101a20000201e9000402420085824a0006034b00dd
:101a300087834b000748a300f9ff32000740a0004e
:101a400004a8be0006a8be00200020008000980068
:101a50009200980000000600e48240001078a30085
:101a600007003200640240001178a3003400be0079
:101a70001401be00040032000330a700000006007d
:101a80003500be001501be000330a00000000600b6
:101a9000810378004dff07000001be006000b80020
:101aa0000478a30013003a006220e10015003e0014
:101ab0000d0039008301d1000281d3008180d30061
:101ac0008301d1000281d3008180d3008301d10042
:101ad0000281d3008180d3000538b000c42add0024
:101ae000f300b2008381720007f0a70003f0a000aa
:101af00000000600f3ff2700f2ff2f006110b9007d
:101b0000fbff370003ff2700f7ff37008f1fd100cf
:101b1000970007008f87e9000000e0000000060042
:101b2000801feb00920007008f87e9000000e000b3
:101b3000000006001400fa00889fbe008a9fbe00c5
:101b40008c9fbe000005be000206be006800470074
:101b50000c90be000a90be0098ff07006400e100f0
:101b60001a00320016003e006100e1001a00320047
:101b70006e049000fe0490000e0b90009e0b9000ef
:101b80006011b8009e0590000b38b100d50120000f
:101b900082817100610164008703d1000683d30054
:101ba0008984d3000884d3008502e900f8ff3a0055
:101bb000e0fe07000df0a70001f0a0007aff37005b
:101bc000f1ff2700f0ff2f0077ff370001f8270013
:101bd00000002000f7ff37006000b800f5ff370075
:101be0008c0007000509780000000600809feb00cc
:101bf0005f0007008f87e9000000e000000006009a
:101c00002800fa00889fbe008a9fbe008c9fbe00fd
:101c100003866b0050ff07006400e10044003200bf
:101c20006408e1004a0032006100e1004600320031
:101c30006108e10049003200ec0647006000b8008e
:101c40003d02be003d03be00f48657006011b8009f
:101c50003d04be003d05be007d0320000b003700a3
:101c60000000a0008d06e9001300320004024200cb
:101c700085824a0006034b0087834b00000040002a
:101c80008180480002014900838149000802520016
:101c900089825a000a035b008b835b00f0ff3b00e4
:101ca0000802420089824a000a034b008b834b00e2
:101cb0008d06e900edff3a00848272008682720090
:101cc000f707b20087827200010032001500200081
:101cd0001e0490003e0b900006035400e63fb00047
:101ce0000368a300070032000000a7000500a00061
:101cf0008301d1000281d3008180d3000080d30012
:101d00000603e8008301d1000281d3008180d30063
:101d10000080d3000002eb000482d200e2fe070044
:101d200003f0a1000cf0a70003f0a0001eff370095
:101d3000640247006408e10018ff32003400be006e
:101d40003401be00f6ff37006108e10013ff3200e6
:101d50006011b8006000b800f1ff370003ff2700f2
:101d600002002000fbff370007f0a2001bfd370038
:101d7000889fbe008a9fbe008c9fbe000404be00e8
:101d80000605be00809fbe00829fbe002e00070099
:101d9000040678000800be000a01be002a00070001
:101da000840678004f03be004f02be008d4f7600c0
:101db0007fb0970013003300f0ff2f008b8f6b0074
:101dc00006003b000d0666000c00a7000a00370065
:101dd00007f0a600100020000a003700880f52000c
:101de000898f5a008a0f5b008b8f5b0003003900dc
:101df0001000200001003e000000200007f0a700b6
:101e00000000ea004f06be004f05be004f04be00b2
:101e1000000006000003be006cfe07006220e10027
:101e2000020032000600be0005000500e507b10013
:101e3000f107b20004f023008480700007f0a700cf
:101e400001f0a0002400050005ff270005826100c5
:101e5000070032000428e1000100320024000500e0
:101e60000600070001003a004400050004080500d0
:101e700002000700f9ff3a00140005006f826100bc
:101e80008102700085027100850272000000060068
:101e90000400fa00e0bf9f00e48157008129780028
:101ea0000002eb000f0037006fb8970090407800f9
:101eb0007fb89700104078000402e80080cf5000ff
:101ec000040032008180fb000080fb000080500095
:101ed000070037006fb897000000e800e0bf9f00e0
:101ee0009309e800820f5200efff3a000000eb0078
:101ef0000080fa000000060010417800b141510056
:101f000003003a000000e8000204e000faff3a0093
:101f10000300fb00000006008002780080017800ca
:101f200002027800070037000402e900314078001f
:101f3000805978000004e00002003a000000eb0045
:101f40000600370002804200808f5100f6ff3a0001
:101f5000faff37008059eb000000e800840f5000c2
:101f6000fcff3a000500780000000600889fbe00d4
:101f70008a9fbe008c9fbe008e1f780000047800f0
:101f8000810678000100e00003003200800e780036
:101f9000010037000804e800984478000900fb00bd
:101fa0008bf90700800078000000e000f9ff3a009c
:101fb000d0c2b30080cf540003003a000804e80008
:101fc0001bc0b30005003700b0c2b30080cf54007f
:101fd00001003a000804e800814578000005eb00a4
:101fe0000a0778006033b8000b48a30005003a00e8
:101ff000e0c2b300984f100002003a000b44a0006a
:102000001b003700984478000900fb000cfd2f00ee
:102010000c004000e90f500017003e000b14a00018
:102020000b00fb00e90f55000e0032000048a30032
:10203000010032000e07e9000a05e800a2002000b6
:10204000030020000600be009ff907000cc14400f9
:102050000281fb000300200000034100818349004e
:10206000030037000048a30001003a000e07e80013
:102070000804e800dcff370050c6b30080cf5400ee
:10208000040032000001eb0050c4b30080cf5400c4
:1020900032003a008801e80093407800d0c2b300d3
:1020a00080cf500002003a000b34a000030037003c
:1020b000b0c2b30080cf500003003a008881e8002e
:1020c000010037008301e8009340780005c3b300a6
:1020d00085cf5000fbff32000100fb0004fd2f0004
:1020e00004004000e90f50000300360003047800ac
:1020f0000001eb001600370005c050000081fb0016
:102100000304e800984078000100fb000400400050
:10211000e90f50000e003e00ea10b80085c05000e4
:102120008180fb00010140000384e80098417800b1
:102130000300fb0004004000e90f500004003e00d3
:10214000ea11b80005c051000080fb000001410009
:102150000b38a300010032000201ea00020547002b
:102160000d00e000030032000b18a3000100320054
:10217000880e78000600be006dfa07000004be005d
:102180000006be006011b80055f907006011b800e4
:102190000000e0005900320030f82f00800f550099
:1021a00003003d0020022000f0738b005300370035
:1021b00000082000800f55000a0034002002200093
:1021c000f0738b000b08a300030032000200200014
:1021d00003f82f00490037000200200003f8270011
:1021e000460037000a00e0001c003d000a05ea0036
:1021f00006003700922f2000530125000800be0082
:10220000d5f907000004be006a055500e90f550026
:10221000f8ff3c000006eb0006003700020020003b
:10222000031224000800be00cbf907000004be0022
:102230000c06e8008a0f5600f8ff3a000806be00b8
:1022400002002000030820000800be0024f9070057
:102250000000e00025003d001c0037000a00e000ff
:1022600007003c0021003700922f20005301250079
:102270000800be00faf907000004be006a05550018
:10228000e94f5500f8ff3e000006eb00060037005e
:1022900002002000031224000800be00f0f907002d
:1022a0000004be000c06e8008a0f5600f8ff3a0052
:1022b0000806be00f2ff2f00f3f727000800be005b
:1022c00009f907000000e000080034000b08a30033
:1022d0000300320002002000030828000700370036
:1022e0000200200003082000040037000b08a300b0
:1022f000010032000df0a2000c01be000200be0081
:102300004f0778004f06be004f05be004f04be00c9
:10231000000006008000eb0014ff37000c00fa00fc
:10232000889fbe0000047800cfb09700f0ff270020
:10233000d0bf9f008004eb0099bf9f0088bf9f0023
:10234000a8bf9f00200c2000b0bf9f0078815700dd
:1023500070805700a70007000fb897000948780061
:102360000fb8970008045000080078004f04be0022
:102370000080fa0000000600800078003004e000d1
:10238000feff3a00010050000000e90000000600d6
:10239000000278008001eb0002003700015a78004b
:1023a0008301e800828f5100fcff3a000000060024
:1023b000889fbe008a9fbe008000780000c2b300e4
:1023c00001003700890078008104780039447800e2
:1023d000804f5400fbff3200e94f5400f9ff3200f8
:1023e000d0c2b300804f540004003a001944780072
:1023f0008184e8001ac0b300060037000045eb00f6
:10240000b0c2b300804f540002003a001944780073
:102410008184e8006022b8000a003700a200200092
:10242000030020000400be00a7f807000b41440091
:102430000281fb000300200000024100818249006c
:10244000394478000880fb000bfd2f000b00400092
:10245000e90f5000f1ff36000a04e00002003200ec
:1024600060021200e0821a000400be004f05be00a8
:102470004f04be0000000600000278008001eb005f
:1024800002003700315a78008301e800828f510042
:10249000fcff3a0000000600889fbe008a1f7800fb
:1024a000804078000004e00021003d008040ea0008
:1024b000d0c6b30080cf5000090034008104fb0077
:1024c00042062000110009008204d80000017800b3
:1024d000010078004311dd008ac226001f0037008a
:1024e0000100fb0083c2260039003700a200200053
:1024f000110009000200d8000001780001007800f6
:102500004311dd00030141004300dd0003004000f2
:102510003002be002003be0042209000d220900076
:10252000f221900062219000a9fb07002e003700e5
:10253000d0c6b30080cf5000230034008104fb00dc
:1025400042062000110009008204d8000001780032
:10255000010078004311dd008acd26000a01410008
:10256000a8002000110009000800d8004300dd0089
:102570000a00400040229000d0229000602390008a
:10258000f02390000288900092889000b289900019
:10259000228990008efb0700801f780001027800de
:1025a000110009008804d8000102fd004f007800e6
:1025b0000402fb004322dd000a0242005403be0075
:1025c0004402be00d8ff37000100fb0083cd260087
:1025d000eacf5000c5ff3c004300dd00030040008f
:1025e0005001be004000be004f0578004f04be0001
:1025f000000006008f03b000889fbe008a9fbe00c7
:102600008c9fbe008e1f7800e0b79f00f1b79f003f
:1026100082bf9f000000eb00a0b79f00e5043700d9
:102620000001eb0050c2b30080cf5000090032001f
:102630000100fb00efb09700eb040700e10f400042
:10264000dc043200afb097008100e800a1b79f0022
:10265000d8043700ffb1970093407800d0c2b30090
:1026600080cf50000c00320007003c006d4050004d
:1026700080cf50000d0032006b40400080cf5000f2
:1026800019003a000e00370000c3b30080cf50009d
:1026900015003a000f0037000230a0007fb297000b
:1026a0000402e800f4b79f00eaff37000200a00030
:1026b000ffb297008502e800f5b79f00e5ff3700fd
:1026c0000210a0007fb697000c06e800fcb79f0040
:1026d000e0ff37000220a0007fb097000000e80074
:1026e000f0b79f00dbff37000218a30001003200a3
:1026f0000200a1000238a300010032000220a10064
:102700000100fb0003fd2f0003004000e90f500013
:102710000f003e008000eb00c1b79f004fb2970052
:10272000ea20b800ffb297009500fb0001004000ce
:1027300003004000c0b79f005500fb00f5b79f00a5
:1027400003004000e90f50000d003e00f3ff37008a
:102750000006eb00ccb79f00a0c2b30080cf5000b2
:1027600007003a000fb89700c000780080bf9f00b4
:10277000c1b79f00ffb197008301e800f3b79f0046
:10278000e0c2b3007fb29700944f100021003a00de
:10279000820678000de0a0008400e800644050004c
:1027a000914f100004003200f1b79f008002eb004f
:1027b000b5b79f00100037000fbe97004c0078009f
:1027c0008cbf9f00b0b79f00ffb097008180e800ea
:1027d000f1b79f0013003700bfb19700ea18b800a7
:1027e0000100400002004000b0b79f007fb2970098
:1027f0000402e800f4b79f00ffb297009500fb00c9
:1028000002fd2f0002804000e90f5000f2ff360069
:1028100004003700820678000dc0a0000006eb001f
:10282000bcb79f007fb09700b0407800f0b79f0022
:10283000c17f9f00c0c6b30080cf50002700320088
:1028400014003c006840500080cf50009d003200d2
:1028500009003c006c40500080cf5000290032003d
:102860006b40400080cf5000720032000104e00055
:10287000560432008e00370060c6b30080cf50008f
:102880001c0032006340400080cf500088003a00b6
:102890008c00370030c7b30080cf50001c003200de
:1028a00007003c006440500080cf5000130032000d
:1028b0000040e80080cf50007d003a001100370052
:1028c00050c7b30080cf50007d003200634040000d
:1028d00080cf500076003a000b003700000028003f
:1028e0000d48a30001003a00000120008086760018
:1028f000ccff37000da0a000720037000d60a000d3
:10290000700037000d50a0000d70a0006d00370062
:102910008fb897004100780081bf9f0000047800c5
:102920000000e00001003a0088e226008004eb008d
:10293000010037008104e800890078000880440025
:102940001004e000fbff3a003fb197000200e000f6
:1029500003003200890f5100010031008204780029
:102960000007eb00cfb19700898f510001003600be
:10297000098751004368de00e106600019003a0053
:102980000d06780009003700efb097000002200024
:1029900015040700e10f4000030032002fb297003a
:1029a0000402e800a4b79f000c06e8008e0f560052
:1029b000f5ff3a000087eb000a0037008800780036
:1029c0003100fb0001047800efb097000604070017
:1029d000e10f400003003200afb297008502e8002b
:1029e000a5b79f000900e90080047800e10f4000ce
:1029f000f2ff3a000006eb000d00e0000a003a008a
:102a0000ec033700efb0970000022000f603070048
:102a1000e10f4000030032002fb097000000e800f3
:102a2000a0b79f000c06e8008e0f5600f5ff3a0095
:102a3000e00337008fb897004100780081bf9f0006
:102a4000cf80de0001017800820178000205be001f
:102a50000004be000203be000002be004822de00e9
:102a6000482edd0004027600c47f9f000d48a300bd
:102a70000a0032000404e00008003200e14f420086
:102a800006003200d1fb2f00018047000448780087
:102a9000184098002900200002003700d07f9f00d6
:102aa00019002000d2fb2f0002844700a6ff370048
:102ab000c3fb2f000384470019002000a2ff37004a
:102ac0000d0cb30000702000008266002702320067
:102ad0000dc8a3000200320064002000b4b79f00bc
:102ae0000d48a300050032000fba97004401be0054
:102af0004400be0084bf9f00040037008fba9700d7
:102b00004500be0085bf9f00e1fb0700e0af9f00ce
:102b1000f1af9f0082b79f0093b79f006022b8007b
:102b20006033b8006fa89700ffa897000fb1970017
:102b30009fb19700f5fb07000000e0000a003d0090
:102b40006fa89700ffa897000fb197009fb197005b
:102b500003f0a200e0af9f00f1af9f0082b79f009b
:102b600093b79f003d00b3000000eb0080a79f00db
:102b70006022b8006033b8006fa89700ffa89700e4
:102b80000fb197009fb19700e5fb07000000e00040
:102b9000340032006fa89700ffa897000fb197008c
:102ba0009fb19700e3fb070003fc2f000381470060
:102bb0000bfc07000fa097000000e900e300b8003d
:102bc000a2002000110009000200d8008000fd00d2
:102bd00081a79f000100e00002003d000100e90024
:102be00080a79f000fa497000840ea002afe070074
:102bf0006faa9700ffaa97000fb397009fb39700a3
:102c0000f3f90700a0af9f00b1af9f00c2af9f00d4
:102c1000d3af9f006022b8000600200007ff23000a
:102c2000bafb07000000e00002003d000800e900d8
:102c30000b0037006022b800060020004702240085
:102c40002fa89700bfa897004fa99700dfa997006a
:102c5000e6fb07000000e000020035000800e80085
:102c600080a79f003fb29700f80f520057003c002a
:102c7000d0c6b300804f5200290036000485fb0007
:102c800042062000110009000285d80000017800ea
:102c9000010478004311dd008bc226000b014100c6
:102ca0006022b8000600200007fe23000288900082
:102cb00092889000b289900022899000c4f90700a0
:102cc000a9002000809fbe00110009000984d800df
:102cd000000478004f00be004344dd000b044400b4
:102ce00048229000d822900068239000f82390009a
:102cf000b7f90700801f7800010278001100090071
:102d00000985d8000102fd004f0078004322dd0054
:102d10000b0242005403be004402be001f003700f5
:102d20000480fb0089c22600ea4f520014003600de
:102d3000a2002000110009000280d80000017800e4
:102d4000010478004311dd00090141006022b80050
:102d50000600200007fe230042209000d2209000b1
:102d6000f22190006221900099f907004344dd00b0
:102d7000090444003802be002803be0007003700e3
:102d80004300dd00090040006022b800060020007a
:102d900007fe23005001be004000be008cf9070072
:102da0000002be000203be006fa89700ffa89700b4
:102db0000fb197009fb1970008f90700e0af9f009f
:102dc000f1af9f0082b79f0093b79f000fa49700b9
:102dd000e90f540015003c006022b8006033b800d1
:102de0006fa89700ffa897000fb197009fb19700b9
:102df0004bfb07000000e000320032006fa8970094
:102e0000ffa897000fb197009fb19700e5f9070061
:102e1000e00f5000e08f5800e00f5900e08f59009c
:102e200028003a00e10f540026003400040020007e
:102e300005002e00b6e02200170124002fa89700fd
:102e4000bfa897004fa99700dfa997002ffb0700a5
:102e50000000e00002003d00730054000100370054
:102e60007200540080a79f000fc097008afd0700e2
:102e7000a0af9f00b1af9f00c2af9f00d3af9f0034
:102e80000002be000203be006fa89700ffa89700d3
:102e90000fb197009fb1970059fb0700c1f90700d8
:102ea0000205be000004be006000b8006011b8005a
:102eb000a0a79f00b1a79f00c2a79f00d3a79f0014
:102ec0002e0037006fa89700ffa897000fb197005a
:102ed0009fb19700b3f907000205be000004be00d1
:102ee000e00f5000e08f5800e00f5900e08f5900cc
:102ef0000200350082f807001300370010002000a0
:102f0000010020006011b8000800600089806000a6
:102f10000a0161008b8161008b03d1000a83d30019
:102f20008982d3000882d300000072008180720081
:102f3000020173008381730071f807000002be0074
:102f40000203be00a5f807000002be000203be0097
:102f50006fa89700ffa897000fb197009fb1970047
:102f600081fb0700a0a79f00b1a79f00c2a79f00f9
:102f7000d3a79f000000eb0080a79f0014c0b30000
:102f800085d826000b0037000400fb004300dd005d
:102f9000050040005001be004000be000040e100be
:102fa00001c8e10002d0e10003d8e10003003900cc
:102fb0000442e800f44f5200f3ff3a00c47f9f0040
:102fc0000400fb00bfb09700008040008fa0970076
:102fd000010040004fb1970000075100bfb19700ba
:102fe0000300e000010032000e07e9006380660084
:102ff000010032000e07e9000d28a3002600320070
:10300000e18066000d18a3000c003200d002200001
:103010000100e00001003a000080e900efb09700f5
:1030200071020700e10f4000180032002fb2970034
:103030000402e800a4b79f00140037000100e0007c
:1030400012003200efb09700000220006602070075
:10305000e10f40000d003200afb297008502e8009a
:10306000a5b79f0009003700efb0970000032000cc
:103070005d020700e10f4000030032002fb6970009
:103080000c06e800acb79f000e07e9000e00e00058
:10309000f5ff3c003d0037000d38a3000a00320068
:1030a0000b003700efb09700000220004e0207002f
:1030b000e10f4000030032002fb097000000e8004d
:1030c000a0b79f000e07e9000e00e000f5ff3c00ee
:1030d000e18066000d18a3000c003200d002200031
:1030e0000100e00001003a000080e900efb0970025
:1030f0003d020700e10f400024003200afb097000e
:103100008100e800a1b79f00200037000100e00027
:103110001e003200efb097000002200032020700cc
:10312000e10f4000190032002fb197000201e800c2
:10313000a2b79f00150037000000fb004300dd0030
:1031400081d82600010040003002be002003be00ee
:103150000800be000a01be0048f70700a4002000d6
:10316000050020006033b8004bf707000003b000f3
:10317000efb097001c020700e10f4000030032008f
:10318000afb197008301e800a3b79f004f7a970083
:103190000440e900c07f9f00e14f4000e6ff3a0095
:1031a0000b003700efb09700000320000e0207006d
:1031b000e10f400003003200afb297008502e80043
:1031c000a5b79f000fa097000000e90080a79f000f
:1031d0000fa097000000e000f2ff3c003fb6970010
:1031e00020c1b300f20f560001003c006fe09700d1
:1031f000c07f9f00cf7897000100fb003fb1970090
:1032000000005100e0a79f000104e0000800320028
:10321000efb09700e0022000f3010700e10f40004b
:1032200003003200afb197008301e800a3b79f000d
:103230004f78970098fc07000002be000203be0012
:103240002fa09700bfa097004fa19700dfa1970084
:103250005ff80700d3f807001e0037000000fb00ee
:103260004300dd008cd826000c0040003002be0078
:103270002003be000800be000a01be00fff60700e2
:10328000a4002000050020006033b80002f707000a
:103290000003b000efb09700d3010700e10f40003a
:1032a000030032002fb297000402e800a4b79f0089
:1032b000cf7a97000500fb004300dd000c004000c2
:1032c0003002be002003be000800be000a01be009e
:1032d000f1f607000205be000004be004f7e970015
:1032e0000c40e900c07f9f00e14f4000dbff3a0047
:1032f0000006eb0009003700efb097000003200044
:10330000b9010700e10f4000030032002fb0970021
:103310000000e800a0b79f000c06e800efa09700af
:10332000810f5600f4ff3a000d38a300a1013200ce
:103330000e00e0009f0134000006eb00efb09700a4
:1033400000022000a8010700e10f40000300320046
:103350002fb197000201e800a2b79f000c06e80019
:103360008e0f560093013200f4ff37000d007800f5
:10337000000cb20028003a000d00e00005003d00fe
:103380008fb997004305be004304be0083bf9f0072
:10339000140037000d48a3000b0032000fba97004d
:1033a0004400be0084bf9f004f89de00cf91de0045
:1033b0000002be0002037800820378000605be000a
:1033c0000404be00070037008fba9700450078005c
:1033d00085bf9f0000047800cfc4de000905780097
:1033e0008a057800e00f5400e08f5c00e00f5d007c
:1033f000e08f5d0020003d003d00b3006000b8009c
:103400006011b80008045000898458000a0559006a
:103410008b855900180037000d00e00005003d00c5
:103420000fbe97004c05be004c04be008cbf9f0031
:10343000110037000d48a300080032008fba970032
:103440004500be0085bf9f0004017800840178001c
:103450000205be000004be00070037000fbe970043
:103460004c0078008cbf9f00000478000900200009
:103470000a0020000b0020003fb097000000e00091
:1034800007003a00e00f5400e08f5c00e00f5d00a1
:10349000e08f5d0002003a0011002000b1b79f00ec
:1034a0000d0778000e0cb20000042000800f5700ba
:1034b0002f00320003003c000e00e0000700320045
:1034c0003f00370000082000800f57001400320032
:1034d000000c2000800f570039003a0014c0b300e0
:1034e00085d826000b0037000400fb004300dd00f8
:1034f000050040005001be004000be000040e10059
:1035000001c8e10002d0e10003d8e1002b0039003e
:103510000442e800f44f5200f3ff3a00270037005e
:1035200000012000010020006011b80014c0b300a9
:103530000040e10001c8e10002d0e10003d8e10051
:103540001e003900450020000000d0008180d2001c
:103550000281d2008381d2008502e900faff3a009d
:103560000442e800f04f5200f1ff3a001300370028
:1035700080002000010020006011b80014c0b300da
:103580000040e10001c8e10002d0e10003d8e10001
:103590000a0039003c0020000000d0008180d200e9
:1035a0000281d2008381d2000c06e900faff3a00c2
:1035b0000442e800f54f5200f1ff3a00c47f9f003b
:1035c000cf7897000100fb003fb19700820f5000b9
:1035d00002003d00c27f9f0004003700bfb197008a
:1035e000808f510001003d00b0b79f004fb297009f
:1035f0000400e00004003200638066000200320034
:103600000402e900c4b79f000de8a3000b003200dc
:10361000cfb297003fb697008c8f520003003c005a
:103620000000eb00c0b79f0004003700cfb0970048
:103630003fb1970082805000c1b79f00cf799700bb
:103640000300fb000002eb0094a79f00cfb297009d
:10365000808f5200020034000080520090a79f002b
:103660000d28a30036003200e18066000d18a3008b
:103670000c003200d00220000100e00001003a00fe
:103680000080e900efb09700d7000700e10f40008d
:103690000e0032002fb697000c06e800acb79f0072
:1036a0000a0037000100e00008003200efb0970088
:1036b00000022000cc000700e10f400003003200b0
:1036c0002fb097000000e800a0b79f009fa09700d0
:1036d0000100e0000f0032000006eb00efb09700a1
:1036e00000032000c0000700e10f4000030032008b
:1036f0002fb197000201e800a2b79f000c06e80076
:103700009fa19700830f5600f4ff3a000002eb00e0
:1037100094a79f00bfb297004328dd0001d8260080
:103720000100400090af9f004228dd00640050007f
:1037300080af9f00e32eb800fca79f0082003700f7
:103740001fa097000000e0001100320068806600b2
:103750000f003a0000067800efb09700000220004a
:10376000a1000700e10f400003003200afb0970056
:103770008100e800a1b79f000c06e8001fa1970098
:10378000820f5600f4ff3a008001eb0093a79f00e0
:10379000e18066000d18a3000c003200d00220006a
:1037a0000100e00001003a000080e900efb097005e
:1037b0008d000700e10f4000d6ff32002fb29700c6
:1037c0000402e800a4b79f00d2ff37000100e00028
:1037d000d0ff3200efb09700000220008200070007
:1037e000e10f4000cbff3200afb297008502e80046
:1037f000a5b79f00c7ff370000042000800f5700c7
:103800003100320003003c000e00e00007003200ef
:103810003e00370000082000800f570011003200e2
:10382000000c2000800f570038003a001fa89700b6
:103830003002be002003be000800be000a01be0028
:103840008ef50700a4002000050020006033b800ba
:1038500091f5070004c3b30004424000c47f9f00f9
:103860002a003700f5e22600d5b79f000d58a300c7
:1038700002003a0000e42600d0b79f0014002000a8
:10388000050020006033b8008fa897008100e90090
:10389000050033000402d0008582d2000683d200e6
:1038a0008783d200f9ff37000800be000a01be007e
:1038b00072f507006f0060005fb1970000004100e3
:1038c0001040780010003700140020000500200090
:1038d0006033b8008c0178008301e90005003300f3
:1038e0000402d0008582d2000683d2008783d200f2
:1038f000f9ff37000800be000a01be005ff50700af
:10390000674060000043b000c07f9f004f7a97007f
:103910000400fb00efb0970033000700e10f400008
:1039200003003200afb297008502e800a5b79f0000
:103930001fa897006800500090af9f008fa89700c5
:10394000e480500081af9f0063065600d0ff2f0037
:103950003fb197008010b8007fa29700000042009e
:1039600063005000800f5600a3ff3a000d38a300fb
:10397000100032009fa297000500e0000d00340007
:103980000006eb00efb097000002200016000700d1
:10399000e10f4000030032002fb097000000e80064
:1039a000a0b79f000c06e8009fa09700810f56006b
:1039b000f4ff3a007fb19700b2407800f2b79f0061
:1039c000c17f9f000104e00015fb3a002fb0970073
:1039d0004f0778004f06be004f05be004f04be00e3
:1039e0008f03b10000000600889fbe000001780030
:1039f00001047800b10090000118a3003d003200de
:103a00000198a30003003a00180090000000e000b5
:103a100038003a000190a000310498008204780038
:103a2000f90fb200180090000000e00002003a0018
:103a300028009000000c7800ea8f540006003a003d
:103a4000380090000078a30003003a008800780056
:103a5000d0002000e4ff070098009000580090007c
:103a6000808f50000b0032000100e8001004980025
:103a70001800780009587800000c780011c0b300d5
:103a8000c0e7260001487800ea8f540006003200a3
:103a900019003700880078000940780019000700f5
:103aa0008004780014003700380090000088a300dc
:103ab0001100320018019000a8009000480090000a
:103ac000cbf2070098009000810f500004003200f4
:103ad000380090000003b300300498008084eb00ad
:103ae0000000eb001004980028009000000c780003
:103af000010037008084eb00090078004f04be000d
:103b0000000006000200fa00889fbe00a0ff9f0090
:103b100001047800b1009000810478000904b2002b
:103b2000020032000000fb00360037000118a3003d
:103b300005003a000103b30031049800190498000d
:103b40000080eb002f003700580090000000e000dc
:103b500006003a004800900012002000e68057005e
:103b6000a3f20700190498002400370028009000f1
:103b70000000e00008003a0080e7260020049800da
:103b8000000c7800200020005004980010049800d9
:103b90000130a0003104980018019000a8009000a6
:103ba0004800900092f2070028009000000c780076
:103bb0000080eb001004980018007800aff8970020
:103bc00001587800000c78002ff89700ea4f500059
:103bd0000a003a00380090000088a3000700320075
:103be00018019000a80090004800900080f20700a3
:103bf00019049800a8009000010c7800aff8970015
:103c00000100fb004f04be000080fa000000060027
:020000040000fa
:0200000401f009
:04000c0078ff000079
:020000040000fa
:0200000401f009
:040010007eff00006f
:020000040000fa
:0200000401f009
:040014007fff00006a
:020000040000fa
:10000800c8020000c8020000c8020000c8020000c0
:10001800c8020000c8020000c8020000c8020000b0
:10002800c8020000c8020000c8020000a641020081
:10003800acdc0100c8020000c8020000c8020000d1
:10004800c8020000c8020000d0900100eae70100e1
:1000580020e80100c8020000c8020000c802000031
:10006800c8020000283d0200c80200004ae0010062
:100078006e160200c8020000c8020000c802000094
:10008800c8020000c8020000c8020000c802000040
:10009800c8020000c802000062e8010098e80100f8
:1000a800c8020000c8020000c8020000c802000020
:1000b800c8020000c8020000c8020000c802000010
:1000c800c8020000c8020000c8020000c802000000
:1000d800c8020000c8020000c8020000be8d01006e
:1000e800b21e0000c8020000c8020000c8020000da
:1000f8000e3c0200dc460200c8020000c8020000f4
:10010800c8020000c8020000c8020000c8020000bf
:10011800c8020000c8020000c8020000c8020000af
:10012800c8020000c8020000c8020000c80200009f
:10013800c8020000c8020000c8020000c80200008f
:10014800c8020000c8020000c8020000c80200007f
:10015800c8020000c8020000c8020000c80200006f
:10016800c8020000c8020000dae8010010e9010036
:10017800c8020000c8020000c8020000c80200004f
:1001880052e9010088e90100c8020000c802000025
:10019800c8020000c8020000c8020000c80200002f
:1001a800c8020000c8020000c8020000c80200001f
:1001b800c8020000c8020000c8020000c80200000f
:1001c800c8020000c8020000c8020000c8020000ff
:1001d800c8020000c8020000c8020000c8020000ef
:1001e800c8020000c8020000c8020000c8020000df
:1001f800c8020000c8020000c8020000c8020000cf
:10020800c8020000c8020000c8020000c8020000be
:10021800c8020000c8020000c8020000c8020000ae
:10022800c8020000c8020000c8020000c80200009e
:10023800c8020000c8020000c8020000c80200008e
:10024800c8020000c8020000c8020000c80200007e
:10025800c8020000c8020000c8020000c80200006e
:020000040000fa
:020000040001f9
:1000000074650000787400002f7000006c610000bf
:10001000696e00000074000065780000742f000015
:10002000687400006d6c00000074000065780000ca
:10003000742f0000786d00006c00000074650000f3
:10004000787400002f6300007373000000690000e3
:100050006d610000676500002f67000069660000a1
:10006000006900006d610000676500002f700000ee
:100070006e670000006900006d61000067650000a8
:100080002f6a0000706500006700000061700000ca
:10009000706c00006963000061740000696f00000b
:1000a0006e2f00006a610000766100002d7600006e
:1000b0006d00000061750000646900006f2f000092
:1000c000782d0000776100007665000000000000d8
:1000d000008000000b8000000b8000000b800000ff
:1000e000158000001e800000278000003180000085
:1000f0003b800000468000005a80000067800000be
:100100000d0a00000048000054540000502f000069
:10011000312e00003120000032300000302000007d
:100120004f4b00000d0a0000436f00006e6e000090
:1001300065630000746900006f6e00003a200000e3
:10014000636c00006f730000650d00000a00000082
:1001500048540000545000002f3100002e310000a0
:1001600020340000303000002042000061640000b4
:100170002052000065710000756500007374000076
:100180000d0a0000436f00006e6e00006563000002
:10019000746900006f6e00003a200000636c00007c
:1001a0006f730000650d00000a0d00000a340000a6
:1001b0003030000020420000616400002052000046
:1001c0006571000075650000737400003a2000003e
:1001d000636100006e270000742000006861000069
:1001e0006e6400006c650000204300006f6e00002c
:1001f000746500006e7400002d4c0000656e0000f8
:1002000067740000680d00000a00000048540000f8
:10021000545000002f3100002e3100002034000027
:1002200030310000205500006e6100007574000040
:10023000686f0000726900007a650000640d0000bc
:100240000a570000575700002d4100007574000048
:10025000686500006e74000069630000617400004e
:10026000653a0000204200006173000069630000ed
:1002700020720000656100006c6d00003d220000ee
:10028000507200006f740000656300007465000028
:10029000642200000d0a0000436f00006e6e000033
:1002a00065630000746900006f6e00003a20000072
:1002b000636c00006f730000650d00000a0d000004
:1002c0000a34000030310000205500006e6100004b
:1002d00075740000686f0000726900007a650000a4
:1002e000643a000020500000617300007377000042
:1002f0006f720000642000007265000071750000dc
:1003000069720000656400000d0a000000480000ea
:1003100054540000502f0000312e00003120000006
:1003200034300000342000004e6f000074200000c4
:10033000666f0000756e0000640d00000a43000047
:100340006f6e00006e65000063740000696f00004e
:100350006e3a0000206300006c6f000073650000bf
:100360000d0a00000d0a000034300000343a00008d
:1003700020460000696c0000652000006e6f0000e0
:1003800074200000666f0000756e0000640d0000b0
:100390000a00000048540000545000002f310000b3
:1003a0002e310000203400003134000020520000c3
:1003b0006571000075650000737400002d55000024
:1003c00052490000205400006f6f0000204c0000d4
:1003d0006f6e0000670d00000a4300006f6e0000a2
:1003e0006e65000063740000696f00006e3a0000e3
:1003f000206300006c6f0000736500000d0a0000b0
:100400000d0a000034310000342000005265000065
:100410007175000065730000742d000055520000d6
:1004200049200000546f00006f2000004c6f000056
:100430006e6700003a20000042750000666600000a
:1004400065720000206f0000766500007266000093
:100450006c6f000077200000646500007465000088
:1004600063740000656400000d0a0000004800008d
:1004700054540000502f0000312e000031200000a5
:100480003530000030200000496e00007465000027
:10049000726e0000616c0000205300006572000065
:1004a000766500007220000045720000726f000047
:1004b000720d00000a4300006f6e00006e650000c0
:1004c00063740000696f00006e3a00002063000052
:1004d0006c6f0000736500000d0a00000d0a00003b
:1004e0003530000030200000496e000074650000c7
:1004f000726e0000616c0000205300006572000005
:10050000766500007220000045720000726f0000e6
:10051000723a00002045000078700000656300001a
:1005200074650000642000006461000074610000d4
:10053000206e00006f7400002070000072650000e3
:10054000736500006e7400000d0a00000048000092
:1005500054540000502f0000312e000031200000c4
:1005600035300000312000004e6f00007420000084
:10057000496d0000706c0000656d0000656e000044
:1005800074650000640d00000a4300006f6e0000f7
:100590006e65000063740000696f00006e3a000031
:1005a000206300006c6f0000736500000d0a0000fe
:1005b0000d0a000035300000312000004e6f0000b1
:1005c00074200000496d0000706c0000656d000033
:1005d000656e000074650000643a0000204f000062
:1005e0006e6c000079200000474500005420000098
:1005f000616e000064200000504f00005354000062
:100600002073000075700000706f000072740000ad
:10061000656400000d0a000000480000545400000a
:10062000502f0000312e0000312000003330000038
:1006300032200000466f0000756e0000640d00005f
:100640000a4300006f6e00006e65000063740000d6
:10065000696f00006e3a0000206300006c6f0000bc
:10066000736500000d0a00004c6f0000636100001c
:10067000746900006f6e00003a200000004800001e
:1006800054540000502f0000312e00003120000093
:100690003430000033200000466f0000726200001a
:1006a00069640000646500006e0d00000a430000ec
:1006b0006f6e00006e65000063740000696f0000db
:1006c0006e3a0000206300006c6f0000736500004c
:1006d0000d0a00000d0a0000343000003320000035
:1006e000466f0000726200006964000064650000eb
:1006f0006e3a000020530000534c000020520000ce
:1007000065710000756900007265000064200000da
:100710002d20000075730000652000004854000083
:1007200054500000530d00000a00000083800000b8
:1007300083800000a88000000681000087810000ff
:10074000ca81000037820000a78200000d830000ec
:100750003f830000436f00006f6b0000696500007d
:100760003a00000041750000746800006f720000dc
:10077000697a000061740000696f00006e3a000041
:10078000004300006f6e0000746500006e7400008e
:100790002d4c0000656e000067740000683a000090
:1007a00000000000aa830000b2830000c1830000a3
:1007b0007478000074000000687400006d00000090
:1007c000687400006d6c0000006300006769000041
:1007d000007800006d6c000000630000737300007f
:1007e0000067000069660000007000006e6700008e
:1007f000006a000070670000006300006c61000088
:10080000007700006176000000000000000000009a
:1008100000000000d8830000dc830000e0830000bb
:10082000e5830000e9830000ed830000f183000010
:10083000f5830000f9830000fd83000001840000bf
:1008400005840000686500006164000065720000b6
:100850002e6900006e630000006600006f6f0000ec
:1008600074650000722e0000696e000063000000d5
:1008700021440000454600000047000045540000a8
:10088000005000004f53000054000000696e00004b
:1008900064650000782e0000687400006d000000a0
:1008a0000d0a00000d0a0000333000003420000063
:1008b0005265000064690000726500006374000006
:1008c0003a200000004300006f6e000074650000d5
:1008d0006e7400002d54000079700000653a00002d
:1008e00020000000436f00006e740000656e000081
:1008f000742d0000456e0000636f00006469000005
:100900006e6700003a200000677a000069700000fe
:100910000d0a0000004300006163000068650000ec
:100920002d4300006f6e0000747200006f6c0000b9
:100930003a200000006e00006f2d0000636100008f
:1009400063680000650000006d610000782d000004
:1009500061670000653d0000003600003030000097
:10096000000000000000000000000000782d0000e2
:100970004f53000043000000000000000000000092
:100980000000000000000000000000000000000067
:100990000000000000000000000000000000000057
:1009a000000000000000000000000000014d0000f9
:1009b000792000004e650000747700006f7200001f
:1009c0006b000000000000000000000000000000bc
:1009d0000000000000000000000000000000000017
:1009e0000000000000000000000000000001000006
:1009f00000700000617300007370000068720000f6
:100a000061730000650000000000000000000000ad
:100a100000000000000000000000000000000000d6
:100a200000000000000000000000000000000000c6
:100a300000000000000000000000000000000000b6
:100a400000000000000000000000000000000000a6
:100a50000000000000000000000000000000000096
:100a60000000000000000000000000000000000086
:100a70000001000000a90000fe01000001ff0000cd
:100a8000ff000000000000000000000000ff000068
:100a9000ffff0000ff4000001f28000023000000af
:100aa00000000000006e0000616d000065000000a5
:100ab0000000000000000000000000000000000036
:100ac0000000000000000000000000000000000026
:100ad0000000000000000000000000000000000016
:100ae000000000000000000000480000420000007c
:100af00000000000000000000000000000000000f6
:100b000000000000000000000000000000000000e5
:100b100000000000000000000000000000000000d5
:100b200000000000000000000000000000000000c5
:100b300000000000000000000000000000000000b5
:100b400000000000000000000000000000000000a5
:100b50000000000000000000000000000000000095
:100b60000000000000000000000000000000000085
:100b70000000000000000000000000000000000075
:100b80000000000000000000000000000000000065
:100b90000000000000000000000000000000000055
:100ba0000000000000000000000000000000000045
:100bb0000000000000000000000000000000000035
:100bc0000000000000000000000000000000000025
:100bd0000000000000000000000000000000000015
:100be0000000000000000000000000000000000005
:100bf00000000000000000000000000000000000f5
:100c000000000000000000000000000000000000e4
:100c100000000000000000000000000000000000d4
:100c200000000000000000000000000000000000c4
:100c300000000000000000000000000000000000b4
:100c400000000000000000000000000000000000a4
:100c50000000000000000000000000000000000094
:100c60000000000000000000000000000064000020
:100c700000640000006400000064000000640000e4
:100c800000640000006400000064000000640000d4
:100c900000640000006400000064000000640000c4
:100ca0000064000000640000006400000000000018
:100cb0000000000000000000000000000000000034
:100cc0000000000000000000000000000000000024
:100cd0000000000000000000000000000000000014
:100ce0000000000000000000000000000000000004
:100cf000007a000044000000007a00004400000078
:100d0000007a000044000000007a00004400000067
:100d1000007a000044000000007a00004400000057
:100d2000007a000044000000007a00004400000047
:100d3000007a000044000000007a00004400000037
:100d4000007a000044000000007a00004400000027
:100d5000007a000044000000007a00004400000017
:100d6000007a000044000000007a00004400000007
:100d7000004800004200000000480000420000005f
:100d8000004800004200000000480000420000004f
:100d9000004800004200000000480000420000003f
:100da000004800004200000000480000420000002f
:100db000004800004200000000480000420000001f
:100dc000004800004200000000480000420000000f
:100dd00000480000420000000048000042000000ff
:100de00000480000420000000048000042000000ef
:100df000c201000000000000c2010000000000006d
:100e0000c201000000000000c201000000800000dc
:100e10000080000000800000008000000010000042
:100e200000100000001000000010000000ff000093
:100e3000ffff0000ffff0000ffff0000ff000000b9
:100e40000000000000ff0000646e0000007500005c
:100e500070000000666f0000726d0000732e0000cd
:100e6000687400006d0000006c65000064340000d0
:100e7000006c000065640000330000006c65000039
:100e800064320000006c0000656400003100000066
:100e9000636f00006f6b000069650000732e000037
:100ea000687400006d0000006c6500006473000051
:100eb0002e63000067690000006c0000656400009c
:100ec000000400000a0b00000c00000000000000fd
:100ed0000000000000000000000000000000000012
:100ee0000000000000000000000000000000000002
:100ef00000000000000000000000000000000000f2
:100f000000000000000000000000000000000000e1
:100f100000000000000000000000000000000000d1
:100f200000000000000000000000000000000000c1
:100f300000000000000000000000000000000000b1
:100f400000000000000000000000000000000000a1
:100f50000000000000000000000000000000000091
:100f60000000000000000000000000000000000081
:100f70000000000000000000000000000000000071
:100f80000000000000000000000000000000000061
:100f900000750000706c00006f610000645f00006d
:100fa000496d000061670000652e00006874000054
:100fb0006d0000000d0a0000000d00000a0d000089
:100fc0000a000000536900007a6500003d2500001a
:100fd000782c000020730000756d00003d25000096
:100fe000780d00000a000000696e000064650000d2
:100ff000782e0000687400006d0000006578000025
:1010000070610000006e0000747900007000000044
:101010006173000069640000006300006861000003
:101020006e00000069730000696400000073000036
:1010300065630000750000007061000073730000bc
:101040000064000068630000700000006970000028
:10105000616400000067000061740000650000002a
:101060006d610000736b0000007200006569000094
:10107000700000007265000070740000006c0000d9
:101080006f70000074000000627500006e64000064
:1010900000750000736500006100000061640000dd
:1010a00064720000006100007261000074000000c2
:1010b000737200006174000000720000656200003d
:1010c0006f6f0000742e0000687400006d3f000018
:1010d000006900006e640000657800002e68000062
:1010e000746d00003f0000004a7500006e20000093
:1010f0003135000020320000303100003420000083
:10110000303000003a300000383a00003030000043
:1011100000760000352e000034320000005300003d
:10112000454c0000454300005445000044000000c9
:101130004e6f0000204c000043440000205000008f
:1011400072650000736500006e740000006e0000a0
:10115000616d000065000000486500006c6c0000d7
:101160006f2c0000200000006e6f00007420000053
:1011700073650000740000003c6200003e490000fe
:101180006d61000067650000204300006865000095
:10119000636b0000737500006d2000006973000030
:1011a0003a3c00002f6200003e3c000062720000ea
:1011b000202f00003e0000003c6200003e55000071
:1011c000706c00006f61000064200000612000006e
:1011d000466900006c6500003c2f0000623e000084
:1011e0000063000068650000636b00006564000038
:1011f00000660000616900006c0000005468000097
:1012000065200000447900006e6100006d690000f7
:1012100063200000444e000053200000436c000097
:10122000696500006e7400002069000073200000f2
:101230006e6f000074200000656e000061620000a7
:101240006c650000642e0000006e00006f6e0000f0
:1012500065000000626c00006f6300006b0000001e
:10126000696e0000667200000061000064680000a2
:101270006f0000002530000032750000007400008f
:101280007275000065000000666100006c7300006c
:1012900065000000257500000025000066000000c4
:1012a00030000000310000003200000075700000c6
:1012b000006400006e0000003300000034000000f5
:1012c00068690000006c00006f000000256c0000e1
:1012d000750000002564000000760000302e00003c
:1012e000313700000025000030320000583a00007d
:1012f00025300000325800003a250000303200004e
:10130000583a000025300000325800003a2500000d
:1013100030320000583a00002530000032580000fa
:101320000000000008000000f88a0000e58a0000c4
:1013300002000000dc8a0000c38a000001000000f7
:10134000bd8a0000ae8a000001000000aa8a0000e9
:101350009c8a000001000000958a0000448a000079
:10136000020000003d8a0000098a00000100000020
:10137000018a0000ec89000001000000d58900000e
:10138000c489000001000000706900006e67000061
:1013900020310000393200002e31000036380000c4
:1013a0002e3100002e31000000700000696e000038
:1013b000670000007365000065200000646f000096
:1013c000637500006d6500006e74000061740000bc
:1013d000696f00006e000000447500006d70000031
:1013e0002057000050530000206300007265000089
:1013f000646500006e740000696100006c73000099
:1014000000770000707300006372000065640000e4
:10141000004e00006578000074200000636f00003b
:101420006e6e000065630000746900006f6e00005e
:1014300020770000696c00006c20000075730000cc
:10144000652000007468000065200000575000000f
:10145000532d000050750000736800002d420000fd
:1014600075740000746f00006e2000006d65000050
:10147000746800006f640000007700007073000063
:101480007062000063000000382d000064690000f5
:1014900067690000742000005750000053200000ce
:1014a000506900006e2e00002045000067200000fb
:1014b0007770000073700000696e0000203100003a
:1014c000323300003930000032310000322e00008b
:1014d000204e00006578000074200000636f00005b
:1014e0006e6e000065630000746900006f6e00009e
:1014f00020770000696c00006c200000757300000c
:10150000652000007468000065200000575000004e
:10151000532d0000506900006e2000006d65000032
:10152000746800006f6400000077000070730000b2
:10153000706900006e000000436c000065610000ef
:101540007273000020730000637200006565000084
:101550006e000000636c0000730000005265000024
:101560007365000074200000686f00007374000051
:10157000204d00004355000000720000657300001c
:1015800065740000004700006574000073200000cf
:10159000576900004669000020640000657600007d
:1015a000696300006520000076650000727300002a
:1015b000696f00006e00000067650000747700002e
:1015c0006676000065720000004c00006973000040
:1015d00074730000206100006c6c00002063000048
:1015e0006f6d00006d6100006e640000730000000c
:1015f000686500006c700000000000003100000011
:10160000320000003300000034000000350000000c
:1016100036000000370000003800000039000000ec
:101620003130000000310000310000003132000094
:1016300000310000330000003134000000310000b0
:10164000350000003136000000000000fe8a000076
:10165000008b0000028b0000048b0000068b000052
:10166000088b00000a8b00000c8b00000e8b000022
:10167000108b0000138b0000168b0000198b0000ec
:101680001c8b00001f8b0000228b00006d6f000080
:101690006465000000640000696700006974000070
:1016a000616c000000700000756c00007365000044
:1016b00000700000776d000000720000676200009b
:1016c0000073000065720000696100006c0000009a
:1016d0007061000074740000657200006e0000000c
:1016e000776900006474000068000000696e000003
:1016f00076650000727400000066000072650000ec
:1017000071750000656e00006379000000640000e0
:1017100075740000790000006261000075640000cb
:10172000006200007566000066650000720000003f
:10173000746900006d6500006f75000074000000a2
:1017400066720000616d0000696e000067000000b5
:101750006465000066610000756c000074000000a4
:101760006f73000063000000726500006d6f000081
:10177000746500000069000070000000706f0000d8
:1017800072740000006c00006f630000616c000068
:1017900000620000756e0000646c0000657300005c
:1017a00000700000726500006669000078000000ab
:1017b000656e0000616200006c650000640000005e
:1017c0006164000064720000657300007300000033
:1017d000696e000070750000747300000061000005
:1017e0006e6100006c6f000067750000650000000e
:1017f0007265000061640000007200006174000006
:1018000065000000636f00006d70000061720000f1
:10181000617400006f7200000074000068720000c4
:1018200065730000686f00006c64000000750000c4
:1018300070000000646f0000776e0000006f000011
:10184000757400007075000074730000006c000077
:101850006564000000700000696e00006700000011
:10186000257500002e250000752e0000257500004e
:101870002e250000750000002530000032580000c1
:101880003a25000030320000583a000025300000b0
:10189000325800003a25000030320000583a00006b
:1018a00025300000325800003a2500003032000098
:1018b00058000000706900006e67000000730000af
:1018c0007373000000760000302e000031370000f6
:1018d000006200006174000074650000727900000d
:1018e00000660000006900006d75000000660000e1
:1018f00066660000666600006666000066660000b8
:1019000066000000696e00007075000074730000ce
:101910000073000065720000696100006c00000047
:1019200062000000646900006769000074610000e3
:101930006c000000696900006969000069690000c5
:10194000696900006969000069690000696900004f
:1019500069690000006100006e6100006c6f0000aa
:101960006775000065000000636f00006d70000087
:1019700061720000617400006f7200000066000078
:101980006666000066660000666600006666000027
:10199000666600006666000066660000660000007d
:1019a00001020000040800001020000020000000d8
:1019b00021000000060000000700000008000000f1
:1019c00009000000272b00001a1e00000c22000056
:1019d000282c00001b1f00000d2300002500000024
:1019e00029000000180000001c0000000a00000090
:1019f0000e000000020000000400000010000000c3
:101a00002000000004000000080000002600000084
:101a10002a000000190000001d0000000b0000005b
:101a20000f00000001010000010000007f00000025
:101a3000005500002a0000003f3f0000002a00007f
:101a400055000000007f000000000000552a000043
:101a5000003f00003f0000002a5500000000000089
:101a60007f2a0000005500003f0000003f550000a5
:101a7000002a0000000000007d000000640000005b
:101a80000100000014000000140000000500000028
:101a9000c80000000100000008000000e80300008a
:101aa000e803000008000000e8030000e80300006d
:101ab00000040000a300000000000000010200007c
:101ac000030400000506000007080000090a0000e2
:101ad0000b4d000043480000504200004f41000001
:101ae00052440000000000004d500000465300002a
:101af000020100000000000000040000a30000003c
:101b00000000000030780000000000008e8d000012
:041b100000000000d1
:020000040000fa
:020000040001f9
:101b140002570400010000004d504600530201002a
:101b24000e0092006c264f00262d0a00a3ffff0032
:101b340006d43e0067c6b100265eff00ff8a5e0041
:101b4400ffff0600ad4ae1005801000000cb010090
:101b54000000f90005000000da8e220051000000a8
:101b640000000100006401000000c4000700000040
:101b74001101000000795000cf5100000000000066
:101b840000006f0001000000d5080000008a030077
:101b94000000f30020685200000000000000000074
:101ba4007a010000005f0c000000b700d8000000bc
:101bb40019ba9500530000000000020000840100df
:101bc40000001600e5000000c00500000019ba007e
:101bd4009553000000000000000085000100000093
:101be400d6ea000000b3260000008700ced15100e1
:101bf40000000000000000008e01000000891100b8
:101c04000100c200050000008ad270004f000000ed
:101c1400000001000096010000004b0017010000c5
:101c2400ab0f000000e6e400ca5100000000000011
:101c34000000a00001000000f626010000080000da
:101c440000008600d2704f00000000000002000077
:101c5400ab01000000fe26000100080000000000a7
:101c640086d270004f0000000000000000ac0100ac
:101c74000000060027010000c801000000de6c001f
:101c8400cf510000000000000200b7000100000076
:101c9400ce280100001800000000de006ccf5100c7
:101ca4000000000000000000b801000000e6280069
:101cb4000100d3000000000064eaca0051000000e3
:101cc4000000000000c201000000b900290100006a
:101cd400730400000018da007252000000000000d3
:101ce4000100660061766900636f6e002e6963000f
:101cf4006f0066006f6f740065722e00696e63007a
:101d04000068650061646500722e69006e630000fe
:101d1400696e640065782e0068746d0000006c00c4
:101d24006f676f002e706e0067006d00636870004f
:101d34002e6a7300006e6f00697365002e706e006a
:101d44006700720065626f006f742e00636769003c
:101d54000000720065626f006f742e0068746d007d
:101d64000000730068616400652e70006e670000f7
:101d7400786f7300632e6300737300001f8b080079
:101d8400000000000000000000a598007b6c5300d8
:101d9400551cc7006fd7ad0005278900d188c60040
:101da400074c110031a27b0077659a00a87ff800e8
:101db400206c890011a371000ca288004024220029
:101dc4000f4790000c1c04004450e2002b2e3100fd
:101dd4006ac4c7003f4a020073a3eb00ba751d0032
:101de400aeed74005b29ed00b66edd00a38fd1006b
:101df4008d9109005d615b001febe3001ecfef00d6
:101e04003ed6db00db7bd700a277f90025f7f6008e
:101e1400dc733e00df73ee00effc7e00bf33820014
:101e240090e0bf009c1c02005f39c4006f77100073
:101e3400c4527c00f718f5004410cf0061935000a1
:101e440077c25700494909002a2e2e004e69050021
:101e540005056800cd1a6500b0b7b7004f891000ba
:101e64002284cc006e1f54009696960006f3f3006d
:101e7400f3d31a00332f2f000f2914000a545400ef
:101e840054b4a000c178f800bd406300a3ba1200a6
:101e9400a168a6006f4af7002242640006977d00fd
:101ea400c3a77f009624e700641a4d00cb063c00cc
:101eb400a700f40049356e006e6e6e004a3e8c0039
:101ec40003e335003636550002c7ed0038f0a900ab
:101ed400a1551e00f6b88f001d61d90013e3df0081
:101ee400ee30e80016071c0043efd500c23368004b
:101ef400502a53006b48c500e7b347001dd527009f
:101f0400f4ad120064d065002243ab00941c1b00a6
:101f14003d597d0075fcbb00edc6360079d8a000a4
:101f240093a276002d819c00433bbf00896b500037
:101f34002ea86100217e7c00cd9b3600506c67008a
:101f4400f54960001bdb6400d8e4d800b2d8fb007c
:101f540098419700c5fc2600e3682000536a1000ee
:101f6400e333f300f6cfcf009b6213000c53ce0093
:101f7400311947008f3c41008363e8007dae0600c1
:101f8400bf900600217e9c00ad66e6007d9099001e
:101f9400379fbd0090b11a0076d6b2001a604c008b
:101fa400be063e009fd93700a1868600f36f03006a
:101fb400fbb2b300e6b85e00cb9f37007fbefc00e7
:101fc400f548d400e01cde0005fe2000696a6a00c2
:101fd4004ed2c000e5b3ec00fafa86006d14db00c3
:101fe40055f30900e56b1c0036f85800c7856c00f2
:101ff400cad7f8006cbaed00f6b9c4003619d2009d
